S01A000064656D6F70726F675F73746D3332663330332E7372656399
S31508002000003000209D250008692500086B2500087A
S315080020106D2500086F2500087125000800000000DE
S315080020200000000000000000000000007325000802
S3150800203075250008000000007725000879250008A6
S31508002040ED250008ED250008ED250008ED2500081A
S31508002050ED250008ED250008ED250008ED2500080A
S31508002060ED250008ED250008ED250008ED250008FA
S31508002070ED250008ED250008ED250008ED250008EA
S31508002080ED250008ED250008ED250008ED250008DA
S31508002090ED250008ED250008ED250008ED250008CA
S315080020A0ED250008ED250008ED250008ED250008BA
S315080020B0ED250008ED25000800000000ED250008C4
S315080020C0ED2500080000000000000000ED250008CE
S315080020D000000000ED250008ED250008ED250008A4
S315080020E0ED250008ED2500080000000000000000AE
S315080020F000000000000000000000000000000000D2
S3150800210000000000000000000000000000000000C1
S315080021100000000000000000ED250008ED2500087D
S3150800212000000000000000000000000000000000A1
S315080021300000000000000000000000000000000091
S31508002140ED250008ED25000800000000000000004D
S315080021500000000000000000000000000000000071
S315080021600000000000000000000000000000000061
S315080021700000000000000000000000000000000051
S3110800218000000000ED250008EE11AA552D
S3150800218C10B5054C237833B9044B13B10448AFF397
S3150800219C00800123237010BD0C00002000000000F5
S315080021AC9035000808B5034B1BB103490348AFF338
S315080021BC008008BD000000001000002090350008C3
S315080021CC08B500F0F9F800F0C7F800F08BF808BD70
S315080021DC08B500F0CBF800F0BBF808BD2DE9F041C6
S315080021EC04460D461746984601F08AF9154BA3FB8B
S315080021FC00308009002201E00132D2B2112A1DD822
S3150800220C114B13F8121003EB420393F801C001EBC0
S3150800221C0C0303FB0443B0FBF3FE03FB1E06002E64
S3150800222CEAD11FFA8EF32B80013B9BB2B3F5806F74
S3150800223CE2D2397088F800C0012000E00020BDE821
S3150800224CF08100BFD34D6210A835000870B58CB06C
S3150800225C0025ADF82E508DF82D500CAB03F8045D07
S3150800226C0DF12D020DF12E014FF4FA70FFF7B6FFA2
S3150800227C1A4C1B4B236025766576A5760126E676E1
S3150800228C25776577A560E5609DF82D30013B1B0425
S3150800229C23619DF82C30013B1B056361BDF82E307C
S315080022AC6360204600F0E8F90695079508964CF603
S315080022BCE043019302954FF6E073039304230493CA
S315080022CC059509960E230A9301A9204600F07AFA79
S315080022DC204600F0F5FA0CB070BD00BF28000020AF
S315080022EC0064004008B5FFF7B1FF08BDBFF34F8F78
S315080022FC0549CA6802F4E062044B1343CB60BFF38A
S3150800230C4F8F00BFFDE700BF00ED00E00400FA05A3
S3150800231C00B58BB001AB03AA00210C4800F0FEFAFD
S3150800232C20B9039A40F267639A4202D00BB05DF863
S3150800233C04FB059B002BF9D19DF80430FF2BF5D136
S3150800234C079B022BF2D1FFF7D1FF00BF2800002014
S3150800235C08B5FFF7DDFF08BD08B5002208210248BD
S3150800236C00F096FC08BD00BF0004004810B500F04C
S3150800237C24F80E4B1B68C31AB3F5FA7F0CD3044624
S3150800238C0B4B1B784BB90122094B1A7008210948CB
S3150800239C00F07EFC054B1C6010BD0022044B1A7025
S315080023AC0821044800F074FCF4E700BF5400002030
S315080023BC5000002000040048704708B500F056F994
S315080023CC08BD0000014A024B9A60704700200008BD
S315080023DC00ED00E030B589B000240394049405940C
S315080023EC06940794164B5A6942F480025A615A6944
S315080023FC02F480020092009A5A6942F400325A6139
S3150800240C5A6902F400320192019A5A6942F48022FE
S3150800241C5A615B6903F480230293029B094D224699
S3150800242C0821284600F034FC08230393012304935F
S3150800243C0594069403A9284600F066FB09B030BD3E
S3150800244C001002400004004830B591B0202200214B
S3150800245C07A801F08FF800240194029403940494BD
S3150800246C05940225069501230A9310230B930D95C3
S3150800247C4FF460130F9306A800F010FC0F2301937A
S3150800248C029503944FF4806304930594294601A896
S3150800249C00F05EFF11B030BD08B5FFF793FF00F0F2
S315080024ACC7F8FFF7D1FFFFF795FFFFF789FEFFF790
S315080024BC8FFE01220821024800F0EAFBF7E700BF6D
S315080024CC0004004882B00A4B9A6942F001029A61EC
S315080024DC9A6902F001020092009ADA6942F0805277
S315080024ECDA61DB6903F080530193019B02B07047F4
S315080024FC0010024000B589B000230393049305939A
S3150800250C069307930268144B9A4202D009B05DF8F9
S3150800251C04FB03F5D633DA6942F00072DA61DA693C
S3150800252C02F000720192019A5A6942F400325A6119
S3150800253C5B6903F400330293029B4FF4C053039375
S3150800254C02230493032306930923079303A94FF045
S3150800255C904000F0D9FAD9E7006400407047FEE7CE
S3150800256CFEE7FEE7FEE770477047704708B500F0D0
S3150800257C71F808BD054BD3F8882042F47002C3F8ED
S3150800258C88204FF000629A60704700BF00ED00E0AB
S3150800259CDFF834D0002103E00C4B5B584350043170
S315080025AC0B480C4B42189A42F6D30B4A02E000230E
S315080025BC42F8043B094B9A42F9D3FFF7DBFF00F0CC
S315080025CCB5FFFFF769FFFEE7003000200C36000860
S315080025DC000000200C0000200C0000205C000020ED
S315080025ECFEE7000010B504460E4B18784FF47A73C4
S315080025FCB3FBF0F30C4A1068B0FBF3F000F06EFA7C
S3150800260C68B90F2C01D901200AE0002221464FF0A7
S3150800261CFF3000F02FFA054B1C60002000E001206B
S3150800262C10BD00BF04000020000000200800002098
S3150800263C08B5074A136843F010031360032000F02B
S3150800264C07FA0020FFF7CEFFFFF73CFF002008BD76
S3150800265C00200240034A1168034B1B780B44136095
S3150800266C704700BF5800002004000020014B186872
S3150800267C704700BF58000020002800F0A18038B52C
S3150800268C044690F82030D3B12268136823F002036D
S3150800269C1360FFF7EBFF054623685A6812F0020F22
S315080026AC10D0FFF7E3FF401B0A28F5D9636A43F4F9
S315080026BC00336362052384F82030012038BDFFF708
S315080026CC19FFE1E71A6842F001021A60FFF7CEFF1C
S315080026DC054623685A6812F0010F0DD1FFF7C6FF9D
S315080026EC401B0A28F5D9636A43F400336362052351
S315080026FC84F820300120E1E7227E012A3DD01A68B1
S3150800270C22F080021A60637E012B3BD02268136884
S3150800271C23F040031360A37E012B39D0226813687B
S3150800272C23F020031360E37E012B37D0226813684D
S3150800273C43F010031360237F012B35D022681368EE
S3150800274C23F008031360637F012B33D022681368C8
S3150800275C23F004031360A368E26813432269134346
S3150800276C626913436268013A21681343CB610020FE
S3150800277C6062012384F82030A0E71A6842F08002D0
S3150800278C1A60C0E72268136843F040031360C2E777
S3150800279C2268136843F020031360C4E722681368A1
S315080027AC23F010031360C6E72268136843F0080386
S315080027BC1360C8E72268136843F004031360CAE77A
S315080027CC01207047036890F82020013AD2B2012AFA
S315080027DC05D9436A43F4802343620120704770B4D9
S315080027ECD3F8002242F00102C3F800224A6902F02B
S315080027FC1F02012000FA02F2D3F81C42D04304400F
S3150800280CC3F81C42CC69ACB9D3F80C420440C3F8E3
S3150800281C0C42CE688D884C6945EA0645483443F81F
S3150800282C34508E680D884C6945EA0645483403EBE6
S3150800283CC4046560CC69012C19D08C6974BBD3F8B7
S3150800284C04420440C3F804420C696CBBD3F8144226
S3150800285C2040C3F81402096A01292BD0D3F80022A8
S3150800286C22F00102C3F80022002070BC7047D3F88E
S3150800287C0C421443C3F80C420E688D884C6945EA21
S3150800288C0645483443F834508E688D894C6945EAB8
S3150800289C0645483403EBC4046560CEE7D3F8044216
S315080028AC1443C3F80442CFE7D3F814021043C3F811
S315080028BC1402D0E7D3F81C120A43C3F81C22CDE73E
S315080028CC38B590F82030DBB2012B05D0436A43F4B7
S315080028DC00234362012038BD0446022380F82030C9
S315080028EC0268136823F001031360FFF7BFFE054661
S315080028FC23685B6813F0010F0DD0FFF7B7FE401B7A
S3150800290C0A28F5D9636A43F400336362052384F80D
S3150800291C20300120DFE700206062DCE730B490F855
S3150800292C2040013CE4B2012C06D9436A43F48023C7
S3150800293C4362012030BC704700296FD10468E468F3
S3150800294C14F0030F64D0056801F11B0424012C59FB
S3150800295C04F004049460002C6BD1056801F11B0487
S3150800296C24012C59640D1460056801F11B0424011B
S3150800297C2D5905F00205D560056825446D6805F0E6
S3150800298C0F051561056825446D68C5F3072595611E
S3150800299C05682C446468240C546104680A011444C0
S315080029ACD4F8B8411C7004681444D4F8B841C4F37C
S315080029BC07245C7004681444D4F8B841C4F307447B
S315080029CC9C7004681444D4F8B841240EDC7004686E
S315080029DC1444D4F8BC411C7104681444D4F8BC41A2
S315080029ECC4F307245C7104681444D4F8BC41C4F3DA
S315080029FC07449C7104682244D2F8BC21120EDA7181
S31508002A0CF9B90268D36843F02003D360002091E734
S31508002A1C436A43F40013436201208BE70468246974
S31508002A2C14F0030F8FD1436A43F400134362012059
S31508002A3C80E7056801F11B0424012C59E40854604D
S31508002A4C92E70268136943F020031361002071E7CB
S31508002A5C074AD36823F4E0631B041B0C000200F43A
S31508002A6CE060184340F0BF6040F40030D060704717
S31508002A7C00ED00E030B4174BDB68C3F30223C3F157
S31508002A8C0704042C28BF04241D1D062D18D9033B46
S31508002A9C4FF0FF3505FA04F421EA0401994005FACA
S31508002AAC03F322EA0303194300280BDB0901C9B215
S31508002ABC00F1604000F5614080F8001330BC7047A7
S31508002ACC0023E5E700F00F000901C9B2024B1954BF
S31508002ADCF4E700BF00ED00E014ED00E00138B0F1BA
S31508002AEC807F0AD2064B5860064AF02182F82310DA
S31508002AFC0020986007221A6070470120704700BFB3
S31508002B0C10E000E000ED00E0F0B583B0002336E0FD
S31508002B1C032400E00024B4403C430235584E46F8E2
S31508002B2C2540584C2568D44304EA05064F6817F423
S31508002B3C803F01D042EA0506524D2E606D6804EAC4
S31508002B4C05064F6817F4003F01D042EA05064D4DBD
S31508002B5C6E60AD6804EA05064F6817F4801F01D04D
S31508002B6C42EA0506474DAE60ED682C404E6816F4F1
S31508002B7C001F01D042EA0504424AD46001330A68B0
S31508002B8C32FA03F479D001249C402240F6D04D68E1
S31508002B9C6E1E012E03D9112D01D0122D12D1866865
S31508002BAC5F000325BD4026EA0506CD68BD403543C2
S31508002BBC8560466826EA04064D68C5F300149C40F1
S31508002BCC34434460C5685F000324BC40E443254095
S31508002BDC8E68BE402E43C6604D68022D01D0122D5C
S31508002BEC13D1DE08083650F826E003F007054FEA3D
S31508002BFC850C0F2505FA0CF52EEA050E0D6905FA56
S31508002C0C0CF545EA0E0540F8265005682C404D682B
S31508002C1C05F00305BD402C4304604C6814F0805F36
S31508002C2CACD0194CA56945F00105A561A46904F059
S31508002C3C01040194019C9D08AE1C114C54F8267095
S31508002C4C03F00304A6000F24B44027EA0407B0F1E6
S31508002C5C904F3FF45FAF0D4CA0420AD004F5806448
S31508002C6CA04208D004F58064A0423FF451AF052475
S31508002C7C51E701244FE702244DE703B0F0BD00BF2E
S31508002C8C0000014000040140001002400004004806
S31508002C9C0AB981627047816170470000002800F00C
S31508002CAC0D8370B582B00446036813F0010F3BD050
S31508002CBCB54B5B6803F00C03042B1ED0B24B5B6858
S31508002CCC03F00C03082B13D06368B3F5803F68D068
S31508002CDC002B40F0928003F1804303F504331A6805
S31508002CEC22F480321A601A6822F480221A605DE097
S31508002CFCA54B5B6813F4803FE6D04FF4003393FA88
S31508002D0CA3F3A14B19684FF4003393FAA3F3B3FA60
S31508002D1C83F303F01F03012202FA03F30B4203D0D9
S31508002D2C6368002B00F0CC82236813F0020F00F0C6
S31508002D3CC680954B5B6813F00C0F00F09C80924B89
S31508002D4C5B6803F00C03082B00F08F802369002BBB
S31508002D5C00F0F380012292FAA2F3B3FA83F303F19B
S31508002D6C845303F584139B001A60FFF77FFC054612
S31508002D7C022393FAA3F3844B1968022393FAA3F359
S31508002D8CB3FA83F303F01F03012202FA03F30B428F
S31508002D9C40F0C480FFF76AFC401B0228E8D90320E0
S31508002DAC95E2794A136843F480331360764AD36AFA
S31508002DBC23F00F03A1680B43D3626368002B36D04C
S31508002DCCFFF754FC05464FF4003393FAA3F36E4B06
S31508002DDC19684FF4003393FAA3F3B3FA83F303F0A9
S31508002DEC1F03012202FA03F30B429DD1FFF73EFCA7
S31508002DFC401B6428E7D9032069E2B3F5A02F09D054
S31508002E0C614B1A6822F480321A601A6822F48022FE
S31508002E1C1A60CBE703F18043A3F53C331A6842F4F6
S31508002E2C80221A601A6842F480321A60BEE7FFF7ED
S31508002E3C1DFC05464FF4003393FAA3F3524B19685D
S31508002E4C4FF4003393FAA3F3B3FA83F303F01F0397
S31508002E5C012202FA03F30B423FF466AFFFF706FCB6
S31508002E6C401B6428E6D9032031E2474B5B6813F410
S31508002E7C803F7FF46BAF022393FAA3F3424B196896
S31508002E8C022393FAA3F3B3FA83F303F01F03012285
S31508002E9C02FA03F30B4204D02369934201D00120B2
S31508002EAC15E23948036823F0F8036169F82292FAA7
S31508002EBCA2F2B2FA82F201FA02F213430360236811
S31508002ECC13F0080F00F08C80A369002B60D0012149
S31508002EDC91FAA1F2B2FA82F22C4B13449B001960B8
S31508002EECFFF7C4FB0546022393FAA3F293FAA3F25F
S31508002EFC93FAA3F2244A516A93FAA3F3B3FA83F327
S31508002F0C03F01F03012202FA03F30B4268D1FFF701
S31508002F1CADFB401B0228E6D90320D8E11A48036802
S31508002F2C23F0F8036169F82292FAA2F2B2FA82F255
S31508002F3C01FA02F213430360C1E7012393FAA3F3E0
S31508002F4CB3FA83F303F1845303F584139B0000222D
S31508002F5C1A60FFF78BFB0546022393FAA3F30A4B79
S31508002F6C1968022393FAA3F3B3FA83F303F01F0346
S31508002F7C012202FA03F30B42A1D0FFF777FB401BA1
S31508002F8C0228E9D90320A2E1001002402081901002
S31508002F9C012292FAA2F2B2FA82F2BC4B13449B00BB
S31508002FAC00221A60FFF762FB0546022393FAA3F286
S31508002FBC93FAA3F293FAA3F2B54A516A93FAA3F3D6
S31508002FCCB3FA83F303F01F03012202FA03F30B424D
S31508002FDC06D0FFF74BFB401B0228E6D9032076E107
S31508002FEC236813F0040F00F0B380A94BDB6913F0C8
S31508002FFC805F20D1A64BDA6942F08052DA61DB6930
S3150800300C03F080530193019B0125A24B1B6813F413
S3150800301C807F12D0E368012B23D073BB03F1804366
S3150800302C03F504331A6A22F001021A621A6A22F0AC
S3150800303C04021A621AE00025E7E7964A136843F475
S3150800304C80731360FFF712FB0646924B1B6813F44A
S3150800305C807FDFD1FFF70AFB801B6428F5D9032094
S3150800306C35E18B4A136A43F001031362E368002BBC
S3150800307C41D0FFF7FBFA06462BE0052B09D0844B0B
S3150800308C1A6A22F001021A621A6A22F004021A62F9
S3150800309CECE77F4B1A6A42F004021A621A6A42F08B
S315080030AC01021A62E2E77A4B196A022393FAA3F32E
S315080030BCB3FA83F303F01F03012202FA03F319424E
S315080030CC45D1FFF7D3FA801B41F28833984200F2B8
S315080030DCF980022393FAA3F293FAA3F3B3FA83F3D0
S315080030EC5B0943F00203022BDDD0022393FAA3F308
S315080030FC674B596AD9E7FFF7B9FA064615E0644BE8
S3150800310C196A022393FAA3F3B3FA83F303F01F03A2
S3150800311C012202FA03F3194219D0FFF7A7FA801B0A
S3150800312C41F28833984200F2CF80022393FAA3F235
S3150800313C93FAA3F3B3FA83F35B0943F00203022B66
S3150800314CDDD0022393FAA3F3514B596AD9E7B5BBE1
S3150800315CE369002B00F0BA804D4A526802F00C0263
S3150800316C082A00F09980022B2FD04FF0807393FA1F
S3150800317CA3F3B3FA83F303F1845303F584139B0087
S3150800318C00221A60FFF772FA04464FF0007393FA9E
S3150800319CA3F33F4B19684FF0007393FAA3F3B3FAF2
S315080031AC83F303F01F03012202FA03F319426BD0CF
S315080031BCFFF75CFA001B0228E7D9032087E0344A9C
S315080031CCD36923F08053D361C2E74FF0807393FA27
S315080031DCA3F3B3FA83F303F1845303F584139B0027
S315080031EC00221A60FFF742FA05464FF0007393FA6D
S315080031FCA3F3274B19684FF0007393FAA3F3B3FAAA
S3150800320C83F303F01F03012202FA03F3194206D0D3
S3150800321CFFF72CFA401B0228E7D9032057E01C4974
S3150800322C4B6823F47413626A206A024313434B6097
S3150800323C4FF0807393FAA3F3B3FA83F303F1845331
S3150800324C03F584139B0001221A60FFF70FFA044654
S3150800325C4FF0007393FAA3F30D4B19684FF00073F4
S3150800326C93FAA3F3B3FA83F303F01F03012202FACA
S3150800327C03F3194206D1FFF7F9F9001B0228E7D91F
S3150800328C032024E0002022E0002020E0208190107A
S3150800329C0010024000700040012B1AD00F4B5B68DF
S315080032AC03F48031226A914201D001200FE003F425
S315080032BC7013626A93420ED0012008E00120704711
S315080032CC012004E0032002E0032000E0002002B005
S315080032DC70BD0120FBE70020F9E700BF0010024093
S315080032EC164B596801F00C03082B24D101F4701203
S315080032FC4FF4701393FAA3F3B3FA83F322FA03F396
S3150800330C0F4AD05C0D4BDB6A03F00F030F2292FABF
S3150800331CA2F2B2FA82F2D3400A4AD25C11F4803F86
S3150800332C03D1094B03FB00F07047084BB3FBF2F3D0
S3150800333C00FB03F070470548704700BF00100240B9
S3150800334CE4350008F435000800093D0000127A003F
S3150800335C002800F0C18070B50446614B1B6803F069
S3150800336C07038B420CD25E4A136823F007030B4300
S3150800337C1360136803F007038B4201D0012070BD5C
S3150800338C236813F0020F06D0564A536823F0F0034D
S3150800339CA068034353600D46236813F0010F5AD0F7
S315080033AC6368012B2DD0022B40D0022292FAA2F28E
S315080033BC4C4A1068022292FAA2F2B2FA82F202F08F
S315080033CC1F02012101FA02F2104200F087804549DA
S315080033DC4A6822F0030213434B60FFF747F9064687
S315080033EC404B5B6803F00C036268B3EB820F32D078
S315080033FCFFF73CF9801B41F288339842F0D9032039
S3150800340CBDE74FF4003292FAA2F2364A10684FF42E
S3150800341C003292FAA2F2B2FA82F202F01F020121EB
S3150800342C01FA02F20242D2D10120A8E74FF000724B
S3150800343C92FAA2F22B4A10684FF0007292FAA2F294
S3150800344CB2FA82F202F01F02012101FA02F21042CC
S3150800345CBDD1012093E7224B1B6803F00703AB424F
S3150800346C0CD91F4A136823F007032B431360136800
S3150800347C03F00703AB4201D0012080E7236813F061
S3150800348C040F06D0174A536823F4E063E1680B432C
S3150800349C5360236813F0080F07D0124A536823F4B5
S315080034AC6053216943EAC1035360FFF719FF0D4BBB
S315080034BC5B6803F0F003F02292FAA2F2B2FA82F2F7
S315080034CCD340094AD35CD840084B1860084B186897
S315080034DCFFF788F8002052E70120704701204EE7D5
S315080034EC0020024000100240CC35000800000020E5
S315080034FC08000020014B1868704700BF0000002028
S3150800350C08B5FFF7F7FF074B5B6803F4E0634FF466
S3150800351CE06292FAA2F2B2FA82F2D340024AD35C81
S3150800352CD84008BD00100240DC35000870B50D4EB9
S3150800353C0D4CA41BA4100025A54209D10B4E0C4C0E
S3150800354C00F020F8A41BA4100025A54205D170BDD7
S3150800355C56F8253098470135EEE756F82530984742
S3150800356C0135F2E70436000804360008043600086C
S3150800357C0836000802440346934200D1704703F804
S3150800358C011BF9E7F8B500BFF8BC08BC9E467047A6
S3110800359CF8B500BFF8BC08BC9E46704796
S315080035A805020602060307030803090309040A04B1
S315080035B80B040C040C050D050E050F050F06100661
S315080035C810071008000000000000000001020304AC
S315080035D8060708090000000001020304020304059F
S315080035E8060708090A0B0C0D0E0F10100102030432
S311080035F805060708090A0B0C0D0E0F103B
S30908003604B1210008DA
S309080036088D210008FA
S3110800360C00127A00010000001000000007
S7050800259D30
