S01A000064656D6F70726F675F73746D3332663330332E7372656399
S315080020000030002009270008D5260008D726000832
S31508002010D9260008DB260008DD2600080000000097
S31508002020000000000000000000000000DF26000895
S31508002030E126000800000000E3260008E52600085F
S315080020405927000859270008592700085927000862
S315080020505927000859270008592700085927000852
S315080020605927000859270008592700085927000842
S315080020705927000859270008592700085927000832
S315080020805927000859270008592700085927000822
S315080020905927000859270008592700085927000812
S315080020A05927000859270008592700085927000802
S315080020B0592700085927000800000000592700087A
S315080020C059270008000000000000000059270008F2
S315080020D0000000005927000859270008592700085A
S315080020E059270008592700080000000000000000D2
S315080020F000000000000000000000000000000000D2
S3150800210000000000000000000000000000000000C1
S3150800211000000000000000005927000859270008A1
S3150800212000000000000000000000000000000000A1
S315080021300000000000000000000000000000000091
S315080021405927000859270008000000000000000071
S315080021500000000000000000000000000000000071
S315080021600000000000000000000000000000000061
S315080021700000000000000000000000000000000051
S311080021800000000059270008EE11AA55BF
S3150800218C10B5054C237833B9044B13B10448AFF397
S3150800219C00800123237010BD0C00002000000000F5
S315080021AC783C000808B5034B1BB103490348AFF349
S315080021BC008008BD0000000010000020783C0008D4
S315080021CC08B500F06FF900F03DF900F0B1F808BD5C
S315080021DC08B500F041F900F02FF908BD08B5094813
S315080021EC094B03604FF46143436000238360C3606B
S315080021FC03610C2242618361C3610362436201F08D
S3150800220CD8FC08BD50000020004400402DE9F041E0
S3150800221C04460D461746984601F03CFA154BA3FBA7
S3150800222C00308009002201E00132D2B2112A1DD8F1
S3150800223C114B13F8121003EB420393F801C001EB90
S3150800224C0C0303FB0443B0FBF3FE03FB1E06002E34
S3150800225CEAD11FFA8EF32B80013B9BB2B3F5806F44
S3150800226CE2D2397088F800C0012000E00020BDE8F1
S3150800227CF08100BFD34D6210903C000870B58CB04D
S3150800228C0025ADF82E508DF82D500CAB03F8045DD7
S3150800229C0DF12D020DF12E014FF4FA70FFF7B6FF72
S315080022AC1A4C1B4B236025766576A5760126E676B1
S315080022BC25776577A560E5609DF82D30013B1B04F5
S315080022CC23619DF82C30013B1B056361BDF82E304C
S315080022DC6360204600F09AFA0695079508964CF620
S315080022ECE043019302954FF6E0730393042304939A
S315080022FC059509960E230A9301A9204600F02CFB96
S3150800230C204600F0A7FB0CB070BD00BF28000020CB
S3150800231C0064004008B5002301220146034801F079
S3150800232C84FB08B1002008BD0120FCE75000002002
S3150800233C08B5FFF753FFFFF7A1FF08BDBFF34F8F93
S3150800234C0549CA6802F4E062044B1343CB60BFF339
S3150800235C4F8F00BFFDE700BF00ED00E00400FA0553
S3150800236C08B5214B1B78B3B92048FFF7D3FF0128D2
S3150800237C00D008BD1D4B1B78013BDBB23F2BF8D8B0
S3150800238C00F091F81A4B1860174B01221A70194B6A
S3150800239C00221A70EDE7174B1B78013313481844C3
S315080023ACFFF7B8FF012813D1124A13780133DBB2B1
S315080023BC13700E4A12789342DBD10B4A0021117026
S315080023CC0A4A5278FF2AD4D1022BD2D1FFF7B6FF8C
S315080023DC00F069F8064B1B6864339842C9D9024B5E
S315080023EC00221A70C5E700BF11010020D00000209A
S315080023FC140100201201002000B58BB001AB03AA12
S3150800240C00210C4800F054FB20B9039A40F267638C
S3150800241C9A4202D00BB05DF804FB059B002BF9D150
S3150800242C9DF80430FF2BF5D1079B022BF2D1FFF751
S3150800243C85FF00BF2800002008B5FFF791FFFFF7BE
S3150800244CDBFF08BD08B500220821024800F0EAFCAB
S3150800245C08BD00BF0004004810B500F024F80E4B68
S3150800246C1B68C31AB3F5FA7F0CD304460B4B1B78BF
S3150800247C4BB90122094B1A700821094800F0D2FC05
S3150800248C054B1C6010BD0022044B1A700821044829
S3150800249C00F0C8FCF4E700BF1C010020180100205E
S315080024AC00040048704708B500F096F908BD00000E
S315080024BC014A024B9A6070470020000800ED00E0C4
S315080024CC30B589B0002403940494059406940794B3
S315080024DC164B5A6942F480025A615A6902F4800210
S315080024EC0092009A5A6942F400325A615A6902F407
S315080024FC00320192019A5A6942F480225A615B6948
S3150800250C03F480230293029B094D22460821284690
S3150800251C00F088FC0823039301230493059406947E
S3150800252C03A9284600F0BAFB09B030BD00100240DA
S3150800253C0004004830B591B02022002107A801F00C
S3150800254C8DFB0024019402940394049405940225AB
S3150800255C069501230A9310230B930D954FF46013DC
S3150800256C0F9306A800F064FC0F23019302950394BD
S3150800257C4FF4806304930594294601A800F0B2FF32
S3150800258C11B030BD08B5FFF793FF00F007F9FFF758
S3150800259CD1FFFFF795FFFFF713FEFFF719FE094C5E
S315080025AC01220821204600F03DFC642000F01AF9AF
S315080025BC00220821204600F035FC4FF4FA7000F092
S315080025CC11F9EAE70004004882B00A4B9A6942F00E
S315080025DC01029A619A6902F001020092009ADA697C
S315080025EC42F08052DA61DB6903F080530193019B58
S315080025FC02B070470010024000B589B0002303935F
S3150800260C04930593069307930268144B9A4202D0D7
S3150800261C09B05DF804FB03F5D633DA6942F00072AB
S3150800262CDA61DA6902F000720192019A5A6942F487
S3150800263C00325A615B6903F400330293029B4FF430
S3150800264CC053039302230493032306930923079386
S3150800265C03A94FF0904000F021FBD9E70064004035
S3150800266C00B589B000230393049305930693079347
S3150800267C0268144B9A4202D009B05DF804FB03F5C4
S3150800268CE633DA6942F40032DA61DA6902F40032C6
S3150800269C0192019A5A6942F400325A615B6903F451
S315080026AC00330293029B48F2040303930223049318
S315080026BC032306930723079303A94FF0904000F0D2
S315080026CCEDFAD9E7004400407047FEE7FEE7FEE75F
S315080026DCFEE770477047704708B500F071F808BDFB
S315080026EC054BD3F8882042F47002C3F888204FF0C3
S315080026FC00629A60704700BF00ED00E0DFF834D046
S3150800270C002103E00C4B5B58435004310B480C4B2F
S3150800271C42189A42F6D30B4A02E0002342F8043BCD
S3150800272C094B9A42F9D3FFF7DBFF01F073FAFFF76F
S3150800273C29FFFEE700300020F43C000800000020CA
S3150800274C0C0000200C00002024010020FEE70000ED
S3150800275C10B504460E4B18784FF47A73B3FBF0F3A6
S3150800276C0C4A1068B0FBF3F000F082FA68B90F2C2B
S3150800277C01D901200AE0002221464FF0FF3000F073
S3150800278C43FA054B1C60002000E0012010BD00BF79
S3150800279C04000020000000200800002008B5074AA5
S315080027AC136843F010031360032000F01BFA002093
S315080027BCFFF7CEFFFFF708FF002008BD00200240F8
S315080027CC034A1168034B1B780B441360704700BF10
S315080027DC2001002004000020014B1868704700BF38
S315080027EC2001002038B50446FFF7F6FF0546B4F17C
S315080027FCFF3F02D0044B1B781C44FFF7EDFF401B30
S3150800280CA042FAD338BD00BF04000020002800F00F
S3150800281CA18038B5044690F82030D3B122681368E5
S3150800282C23F002031360FFF7D7FF054623685A689F
S3150800283C12F0020F10D0FFF7CFFF401B0A28F5D96C
S3150800284C636A43F400336362052384F8203001205D
S3150800285C38BDFFF7D1FEE1E71A6842F001021A60AB
S3150800286CFFF7BAFF054623685A6812F0010F0DD117
S3150800287CFFF7B2FF401B0A28F5D9636A43F4003305
S3150800288C6362052384F820300120E1E7227E012AC1
S3150800289C3DD01A6822F080021A60637E012B3BD069
S315080028AC2268136823F040031360A37E012B39D0EA
S315080028BC2268136823F020031360E37E012B37D0BC
S315080028CC2268136843F010031360237F012B35D05D
S315080028DC2268136823F008031360637F012B33D037
S315080028EC2268136823F004031360A368E268134391
S315080028FC22691343626913436268013A21681343D8
S3150800290CCB6100206062012384F82030A0E71A68A6
S3150800291C42F080021A60C0E72268136843F040034D
S3150800292C1360C2E72268136843F020031360C4E7F8
S3150800293C2268136823F010031360C6E7226813682D
S3150800294C43F008031360C8E72268136843F00403CE
S3150800295C1360CAE701207047036890F82020013AF3
S3150800296CD2B2012A05D9436A43F480234362012073
S3150800297C704770B4D3F8002242F00102C3F8002263
S3150800298C4A6902F01F02012000FA02F2D3F81C422F
S3150800299CD0430440C3F81C42CC69ACB9D3F80C42FA
S315080029AC0440C3F80C42CE688D884C6945EA064546
S315080029BC483443F834508E680D884C6945EA064508
S315080029CC483403EBC4046560CC69012C19D08C69B6
S315080029DC74BBD3F804420440C3F804420C696CBBBC
S315080029ECD3F814422040C3F81402096A01292BD0E3
S315080029FCD3F8002222F00102C3F80022002070BC92
S31508002A0C7047D3F80C421443C3F80C420E688D88F1
S31508002A1C4C6945EA0645483443F834508E688D8926
S31508002A2C4C6945EA0645483403EBC4046560CEE7B1
S31508002A3CD3F804421443C3F80442CFE7D3F814027C
S31508002A4C1043C3F81402D0E7D3F81C120A43C3F890
S31508002A5C1C22CDE738B590F82030DBB2012B05D017
S31508002A6C436A43F400234362012038BD044602231B
S31508002A7C80F820300268136823F001031360FFF70F
S31508002A8CABFE054623685B6813F0010F0DD0FFF704
S31508002A9CA3FE401B0A28F5D9636A43F40033636224
S31508002AAC052384F820300120DFE700206062DCE78C
S31508002ABC30B490F82040013CE4B2012C06D9436AA4
S31508002ACC43F480234362012030BC704700296FD140
S31508002ADC0468E46814F0030F64D0056801F11B045C
S31508002AEC24012C5904F004049460002C6BD105685D
S31508002AFC01F11B0424012C59640D1460056801F1BD
S31508002B0C1B0424012D5905F00205D56005682544DA
S31508002B1C6D6805F00F051561056825446D68C5F3E4
S31508002B2C0725956105682C446468240C546104686F
S31508002B3C0A011444D4F8B8411C7004681444D4F837
S31508002B4CB841C4F307245C7004681444D4F8B8413B
S31508002B5CC4F307449C7004681444D4F8B841240E92
S31508002B6CDC7004681444D4F8BC411C710468144421
S31508002B7CD4F8BC41C4F307245C7104681444D4F833
S31508002B8CBC41C4F307449C7104682244D2F8BC21A6
S31508002B9C120EDA71F9B90268D36843F02003D360D0
S31508002BAC002091E7436A43F40013436201208BE744
S31508002BBC0468246914F0030F8FD1436A43F4001395
S31508002BCC4362012080E7056801F11B0424012C5996
S31508002BDCE408546092E70268136943F02003136112
S31508002BEC002071E7074AD36823F4E0631B041B0C27
S31508002BFC000200F4E060184340F0BF6040F4003077
S31508002C0CD060704700ED00E030B4174BDB68C3F3B7
S31508002C1C0223C3F10704042C28BF04241D1D062D0A
S31508002C2C18D9033B4FF0FF3505FA04F421EA0401E1
S31508002C3C994005FA03F322EA0303194300280BDB30
S31508002C4C0901C9B200F1604000F5614080F8001333
S31508002C5C30BC70470023E5E700F00F000901C9B244
S31508002C6C024B1954F4E700BF00ED00E014ED00E048
S31508002C7C0138B0F1807F0AD2064B5860064AF0211B
S31508002C8C82F823100020986007221A6070470120EA
S31508002C9C704700BF10E000E000ED00E0F0B583B02F
S31508002CAC002336E0032400E00024B4403C430235FC
S31508002CBC584E46F82540584C2568D44304EA050670
S31508002CCC4F6817F4803F01D042EA0506524D2E6034
S31508002CDC6D6804EA05064F6817F4003F01D042EA0E
S31508002CEC05064D4D6E60AD6804EA05064F6817F487
S31508002CFC801F01D042EA0506474DAE60ED682C40B0
S31508002D0C4E6816F4001F01D042EA0504424AD46004
S31508002D1C01330A6832FA03F479D001249C40224024
S31508002D2CF6D04D686E1E012E03D9112D01D0122D29
S31508002D3C12D186685F000325BD4026EA0506CD68D4
S31508002D4CBD4035438560466826EA04064D68C5F3DA
S31508002D5C00149C4034434460C5685F000324BC409F
S31508002D6CE44325408E68BE402E43C6604D68022D4E
S31508002D7C01D0122D13D1DE08083650F826E003F0E0
S31508002D8C07054FEA850C0F2505FA0CF52EEA050EF4
S31508002D9C0D6905FA0CF545EA0E0540F82650056846
S31508002DAC2C404D6805F00305BD402C4304604C6867
S31508002DBC14F0805FACD0194CA56945F00105A561E6
S31508002DCCA46904F001040194019C9D08AE1C114CE5
S31508002DDC54F8267003F00304A6000F24B44027EA1F
S31508002DEC0407B0F1904F3FF45FAF0D4CA0420AD0E8
S31508002DFC04F58064A04208D004F58064A0423FF430
S31508002E0C51AF052451E701244FE702244DE703B0DF
S31508002E1CF0BD00BF00000140000401400010024054
S31508002E2C000400480AB98162704781617047000046
S31508002E3C002800F00D8370B582B00446036813F0C1
S31508002E4C010F3BD0B54B5B6803F00C03042B1ED06B
S31508002E5CB24B5B6803F00C03082B13D06368B3F50D
S31508002E6C803F68D0002B40F0928003F1804303F535
S31508002E7C04331A6822F480321A601A6822F4802203
S31508002E8C1A605DE0A54B5B6813F4803FE6D04FF4FF
S31508002E9C003393FAA3F3A14B19684FF4003393FA52
S31508002EACA3F3B3FA83F303F01F03012202FA03F325
S31508002EBC0B4203D06368002B00F0CC82236813F016
S31508002ECC020F00F0C680954B5B6813F00C0F00F0F0
S31508002EDC9C80924B5B6803F00C03082B00F08F80E8
S31508002EEC2369002B00F0F380012292FAA2F3B3FABD
S31508002EFC83F303F1845303F584139B001A60FFF7DD
S31508002F0C6BFC0546022393FAA3F3844B1968022338
S31508002F1C93FAA3F3B3FA83F303F01F03012202FA1D
S31508002F2C03F30B4240F0C480FFF756FC401B022803
S31508002F3CE8D9032095E2794A136843F48033136081
S31508002F4C764AD36A23F00F03A1680B43D3626368EE
S31508002F5C002B36D0FFF740FC05464FF4003393FAA6
S31508002F6CA3F36E4B19684FF4003393FAA3F3B3FA31
S31508002F7C83F303F01F03012202FA03F30B429DD1DC
S31508002F8CFFF72AFC401B6428E7D9032069E2B3F54E
S31508002F9CA02F09D0614B1A6822F480321A601A687D
S31508002FAC22F480221A60CBE703F18043A3F53C3365
S31508002FBC1A6842F480221A601A6842F480321A603F
S31508002FCCBEE7FFF709FC05464FF4003393FAA3F363
S31508002FDC524B19684FF4003393FAA3F3B3FA83F3FD
S31508002FEC03F01F03012202FA03F30B423FF466AF08
S31508002FFCFFF7F2FB401B6428E6D9032031E2474B66
S3150800300C5B6813F4803F7FF46BAF022393FAA3F348
S3150800301C424B1968022393FAA3F3B3FA83F303F02A
S3150800302C1F03012202FA03F30B4204D023699342CD
S3150800303C01D0012015E23948036823F0F8036169C9
S3150800304CF82292FAA2F2B2FA82F201FA02F21343C7
S3150800305C0360236813F0080F00F08C80A369002B1B
S3150800306C60D0012191FAA1F2B2FA82F22C4B1344E8
S3150800307C9B001960FFF7B0FB0546022393FAA3F2EF
S3150800308C93FAA3F293FAA3F2244A516A93FAA3F396
S3150800309CB3FA83F303F01F03012202FA03F30B427C
S315080030AC68D1FFF799FB401B0228E6D90320D8E123
S315080030BC1A48036823F0F8036169F82292FAA2F217
S315080030CCB2FA82F201FA02F213430360C1E7012352
S315080030DC93FAA3F3B3FA83F303F1845303F5841336
S315080030EC9B0000221A60FFF777FB0546022393FA2A
S315080030FCA3F30A4B1968022393FAA3F3B3FA83F3DF
S3150800310C03F01F03012202FA03F30B42A1D0FFF7C7
S3150800311C63FB401B0228E9D90320A2E100100240F8
S3150800312C20819010012292FAA2F2B2FA82F2BC4BDA
S3150800313C13449B0000221A60FFF74EFB0546022338
S3150800314C93FAA3F293FAA3F293FAA3F2B54A516A45
S3150800315C93FAA3F3B3FA83F303F01F03012202FADB
S3150800316C03F30B4206D0FFF737FB401B0228E6D9C0
S3150800317C032076E1236813F0040F00F0B380A94B03
S3150800318CDB6913F0805F20D1A64BDA6942F08052D6
S3150800319CDA61DB6903F080530193019B0125A24B8D
S315080031AC1B6813F4807F12D0E368012B23D073BB02
S315080031BC03F1804303F504331A6A22F001021A62FA
S315080031CC1A6A22F004021A621AE00025E7E7964A00
S315080031DC136843F480731360FFF7FEFA0646924BA6
S315080031EC1B6813F4807FDFD1FFF7F6FA801B64287F
S315080031FCF5D9032035E18B4A136A43F001031362B0
S3150800320CE368002B41D0FFF7E7FA06462BE0052BBF
S3150800321C09D0844B1A6A22F001021A621A6A22F041
S3150800322C04021A62ECE77F4B1A6A42F004021A622D
S3150800323C1A6A42F001021A62E2E77A4B196A022309
S3150800324C93FAA3F3B3FA83F303F01F03012202FAEA
S3150800325C03F3194245D1FFF7BFFA801B41F28833B5
S3150800326C984200F2F980022393FAA3F293FAA3F395
S3150800327CB3FA83F35B0943F00203022BDDD0022376
S3150800328C93FAA3F3674B596AD9E7FFF7A5FA0646EB
S3150800329C15E0644B196A022393FAA3F3B3FA83F382
S315080032AC03F01F03012202FA03F3194219D0FFF7A0
S315080032BC93FA801B41F28833984200F2CF8002239E
S315080032CC93FAA3F293FAA3F3B3FA83F35B0943F0E5
S315080032DC0203022BDDD0022393FAA3F3514B596A4E
S315080032ECD9E7B5BBE369002B00F0BA804D4A5268A2
S315080032FC02F00C02082A00F09980022B2FD04FF00E
S3150800330C807393FAA3F3B3FA83F303F1845303F5A7
S3150800331C84139B0000221A60FFF75EFA04464FF0EE
S3150800332C007393FAA3F33F4B19684FF0007393FAA3
S3150800333CA3F3B3FA83F303F01F03012202FA03F390
S3150800334C19426BD0FFF748FA001B0228E7D903206D
S3150800335C87E0344AD36923F08053D361C2E74FF030
S3150800336C807393FAA3F3B3FA83F303F1845303F547
S3150800337C84139B0000221A60FFF72EFA05464FF0BD
S3150800338C007393FAA3F3274B19684FF0007393FA5B
S3150800339CA3F3B3FA83F303F01F03012202FA03F330
S315080033AC194206D0FFF718FA401B0228E7D9032062
S315080033BC57E01C494B6823F47413626A206A02436B
S315080033CC13434B604FF0807393FAA3F3B3FA83F36A
S315080033DC03F1845303F584139B0001221A60FFF74B
S315080033ECFBF904464FF0007393FAA3F30D4B1968D7
S315080033FC4FF0007393FAA3F3B3FA83F303F01F03A6
S3150800340C012202FA03F3194206D1FFF7E5F9001B6C
S3150800341C0228E7D9032024E0002022E0002020E03F
S3150800342C208190100010024000700040012B1AD029
S3150800343C0F4B5B6803F48031226A914201D001205C
S3150800344C0FE003F47013626A93420ED0012008E071
S3150800345C01207047012004E0032002E0032000E06D
S3150800346C002002B070BD0120FBE70020F9E700BF81
S3150800347C00100240164B596801F00C03082B24D196
S3150800348C01F470124FF4701393FAA3F3B3FA83F39F
S3150800349C22FA03F30F4AD05C0D4BDB6A03F00F03D9
S315080034AC0F2292FAA2F2B2FA82F2D3400A4AD25CFC
S315080034BC11F4803F03D1094B03FB00F07047084B0E
S315080034CCB3FBF2F300FB03F070470548704700BFE7
S315080034DC00100240CC3C0008DC3C000800093D000A
S315080034EC00127A00002800F0C18070B50446614BC2
S315080034FC1B6803F007038B420CD25E4A136823F051
S3150800350C07030B431360136803F007038B4201D0C0
S3150800351C012070BD236813F0020F06D0564A536873
S3150800352C23F0F003A068034353600D46236813F099
S3150800353C010F5AD06368012B2DD0022B40D00222E2
S3150800354C92FAA2F24C4A1068022292FAA2F2B2FA43
S3150800355C82F202F01F02012101FA02F2104200F077
S3150800356C878045494A6822F0030213434B60FFF7EC
S3150800357C33F90646404B5B6803F00C036268B3EB01
S3150800358C820F32D0FFF728F9801B41F28833984214
S3150800359CF0D90320BDE74FF4003292FAA2F2364A6C
S315080035AC10684FF4003292FAA2F2B2FA82F202F0E2
S315080035BC1F02012101FA02F20242D2D10120A8E728
S315080035CC4FF0007292FAA2F22B4A10684FF0007272
S315080035DC92FAA2F2B2FA82F202F01F02012101FA61
S315080035EC02F21042BDD1012093E7224B1B6803F06F
S315080035FC0703AB420CD91F4A136823F007032B4366
S3150800360C1360136803F00703AB4201D0012080E76F
S3150800361C236813F0040F06D0174A536823F4E063A3
S3150800362CE1680B435360236813F0080F07D0124A5E
S3150800363C536823F46053216943EAC1035360FFF7C7
S3150800364C19FF0D4B5B6803F0F003F02292FAA2F215
S3150800365CB2FA82F2D340094AD35CD840084B1860B8
S3150800366C084B1868FFF774F8002052E701207047DA
S3150800367C01204EE70020024000100240B43C00082E
S3150800368C0000002008000020014B1868704700BF96
S3150800369C0000002008B5FFF7F7FF074B5B6803F43B
S315080036ACE0634FF4E06292FAA2F2B2FA82F2D340E5
S315080036BC024AD35CD84008BD00100240C43C00083E
S315080036CC08B5FFF7E1FF074B5B6803F460534FF44B
S315080036DC605292FAA2F2B2FA82F2D340024AD35C50
S315080036ECD84008BD00100240C43C000810B504467A
S315080036FC83680269134342691343C2691343016819
S3150800370C08686C4A024013430B602268536823F41A
S3150800371C4053E1680B435360A269236A1A43216834
S3150800372C8B6823F4306313438B602368624A934295
S3150800373C15D0624A934228D002F58062934220D073
S3150800374C1023E269B2F5004F21D0082B00F2AB80AA
S3150800375CDFE803F06C818BA996A9A9A9A000584BA0
S3150800376C1B6B03F00303032B09D8DFE803F00204F1
S3150800377C060C0023E5E70423E3E70823E1E7102317
S3150800378CDFE70023DDE70223DBE70023D9E7082B75
S3150800379C49D8DFE803F0051E2948344848483F0055
S315080037ACFFF778FF6268530803EB4003B3FBF2F3A9
S315080037BC9BB20020A3F110014FF6EF72914275D817
S315080037CC9AB222F00F02C3F3420313432268D36062
S315080037DC3DE0FFF775FF6268530803EB4003B3FB44
S315080037ECF2F39BB20020E5E76268530803F574030D
S315080037FC03F51053B3FBF2F39BB20020DAE7FFF79D
S3150800380C39FE6268530803EB4003B3FBF2F39BB231
S3150800381C0020CFE76268530803F58033B3FBF2F355
S3150800382C9BB20020C6E701200023C3E7FFF732FF4F
S3150800383C626800EB5203B3FBF2F39BB20020A3F1D0
S3150800384C10014FF6EF72914232D82268D3600023EA
S3150800385C2366636610BDFFF733FF626800EB5203FD
S3150800386CB3FBF2F39BB20020E9E76268530803F551
S3150800387CF40303F59053B3FBF2F39BB20020DEE797
S3150800388CFFF7F8FD626800EB5203B3FBF2F39BB249
S3150800389C0020D4E76268530803F50043B3FBF2F340
S315080038AC9BB20020CBE701200023C8E70120CEE716
S315080038BC0120CCE7F369FFEF0038014000440040D3
S315080038CC00100240436A13F0010F06D002685368D1
S315080038DC23F40033816A0B435360436A13F0020FD7
S315080038EC06D00268536823F48033C16A0B435360CD
S315080038FC436A13F0040F06D00268536823F4802336
S3150800390C016B0B435360436A13F0080F06D0026829
S3150800391C536823F40043416B0B435360436A13F01B
S3150800392C100F06D00268936823F48053816B0B43FF
S3150800393C9360436A13F0200F06D00268936823F449
S3150800394C0053C16B0B439360436A13F0400F0AD0C4
S3150800395C0268536823F48013016C0B435360036CA1
S3150800396CB3F5801F0BD0436A13F0800F06D002689C
S3150800397C536823F40023816C0B4353607047026829
S3150800398C536823F4C003416C0B435360EBE72DE9F2
S3150800399CF04104460F4616469846069D2368DB6991
S315080039AC37EA03030CBF01230023B3423AD1B5F11E
S315080039BCFF3FF3D0FEF710FFA0EB0800A8421FD874
S315080039CCF5B123681A6812F0040FE7D0DA6912F415
S315080039DC006FE3D04FF400621A622268136823F46E
S315080039ECD07313602268936823F001039360202335
S315080039FC6367A367E367002384F87030032012E03B
S31508003A0C2268136823F4D07313602268936823F032
S31508003A1C0103936020236367A367002384F870303F
S31508003A2C032000E00020BDE8F0812DE9F04383B0C7
S31508003A3C1E46836F202B7AD104460D4690460029E4
S31508003A4C79D0002A79D090F87030012B77D00123E1
S31508003A5C80F870300023C36722238367FEF7BCFE09
S31508003A6C0746A4F85880A4F85A80A368B3F5805F73
S31508003A7C06D0A3B9226972B9FF22A4F85C2014E017
S31508003A8C226922B940F2FF12A4F85C200DE0FF224D
S31508003A9CA4F85C2009E07F22A4F85C2005E0B3F1C9
S31508003AAC805F0AD00022A4F85C20B4F85C80B3F5D9
S31508003ABC805F0CD04FF000091DE022691AB97F22ED
S31508003ACCA4F85C20F1E73F22A4F85C20EDE7236913
S31508003ADC13B14FF000090EE0A94600250BE0236848
S31508003AEC9B8C08EA030329F8023BB4F85A30013BCD
S31508003AFC9BB2A4F85A30B4F85A309BB28BB10096E4
S31508003B0C3B46002220212046FFF741FFC8B9002D6D
S31508003B1CE5D023689A8C5FFA88F3134005F8013BC5
S31508003B2CE3E72023A367002084F8700000E0022056
S31508003B3C03B0BDE8F0830120FAE70120F8E702207C
S31508003B4CF6E70320F4E730B583B004460023C367D1
S31508003B5CFEF742FE054623681B6813F0080F0CD1C6
S31508003B6C23681B6813F0040F15D120236367A3671A
S31508003B7C002084F8700003B030BD6FF07E430093CC
S31508003B8C034600224FF400112046FFF700FF0028D9
S31508003B9CE6D00320EFE76FF07E4300932B46002216
S31508003BAC4FF480012046FFF7F2FE0028DDD00320F3
S31508003BBCE1E768B310B50446436F03B32423636780
S31508003BCC2268136823F0010313602046FFF78EFD65
S31508003BDC012813D0636ABBB92268536823F490434F
S31508003BEC53602268936823F02A039360226813684B
S31508003BFC43F0010313602046FFF7A5FF10BD80F8BC
S31508003C0C7030FEF72DFDD9E72046FFF75BFEE3E79C
S31508003C1C0120704770B50D4E0D4CA41BA410002541
S31508003C2CA54209D10B4E0C4C00F020F8A41BA4108D
S31508003C3C0025A54205D170BD56F8253098470135A3
S31508003C4CEEE756F8253098470135F2E7EC3C0008C4
S31508003C5CEC3C0008EC3C0008F03C00080244034627
S31508003C6C934200D1704703F8011BF9E7F8B500BF7A
S31508003C7CF8BC08BC9E467047F8B500BFF8BC08BC33
S30908003C8C9E4670478B
S31508003C9005020602060307030803090309040A04C2
S31508003CA00B040C040C050D050E050F050F06100672
S31508003CB010071008000000000000000001020304BD
S31508003CC006070809000000000102030402030405B0
S31508003CD0060708090A0B0C0D0E0F10100102030443
S31108003CE005060708090A0B0C0D0E0F104C
S30908003CECB1210008EC
S30908003CF08D2100080C
S31108003CF400127A00010000001000000019
S70508002709C2
